{
  "contractName": "SimpleStorage",
  "abi": [
    {
      "constant": false,
      "inputs": [
        {
          "name": "s",
          "type": "string"
        },
        {
          "name": "t",
          "type": "string"
        }
      ],
      "name": "setWord",
      "outputs": [],
      "payable": false,
      "stateMutability": "nonpayable",
      "type": "function"
    },
    {
      "constant": true,
      "inputs": [
        {
          "name": "random",
          "type": "uint256"
        }
      ],
      "name": "getRandomWord",
      "outputs": [
        {
          "name": "",
          "type": "uint256"
        },
        {
          "name": "",
          "type": "string"
        },
        {
          "name": "",
          "type": "address"
        },
        {
          "name": "",
          "type": "string"
        }
      ],
      "payable": false,
      "stateMutability": "view",
      "type": "function"
    }
  ],
  "bytecode": "0x608060405234801561001057600080fd5b506105ec806100206000396000f30060806040526004361061004c576000357c0100000000000000000000000000000000000000000000000000000000900463ffffffff1680638c595a9514610051578063cc76b91114610100575b600080fd5b34801561005d57600080fd5b506100fe600480360381019080803590602001908201803590602001908080601f0160208091040260200160405190810160405280939291908181526020018383808284378201915050505050509192919290803590602001908201803590602001908080601f016020809104026020016040519081016040528093929190818152602001838380828437820191505050505050919291929050505061024c565b005b34801561010c57600080fd5b5061012b60048036038101908080359060200190929190505050610333565b60405180858152602001806020018473ffffffffffffffffffffffffffffffffffffffff1673ffffffffffffffffffffffffffffffffffffffff16815260200180602001838103835286818151815260200191508051906020019080838360005b838110156101a757808201518184015260208101905061018c565b50505050905090810190601f1680156101d45780820380516001836020036101000a031916815260200191505b50838103825284818151815260200191508051906020019080838360005b8381101561020d5780820151818401526020810190506101f2565b50505050905090810190601f16801561023a5780820380516001836020036101000a031916815260200191505b50965050505050505060405180910390f35b60006060604051908101604052808481526020013373ffffffffffffffffffffffffffffffffffffffff168152602001838152509080600181540180825580915050906001820390600052602060002090600302016000909192909190915060008201518160000190805190602001906102c792919061051b565b5060208201518160010160006101000a81548173ffffffffffffffffffffffffffffffffffffffff021916908373ffffffffffffffffffffffffffffffffffffffff160217905550604082015181600201908051906020019061032b92919061051b565b505050505050565b600060606000606060008060008054905014156103805760003381915060206040519081016040528060008152509060206040519081016040528060008152509450945094509450610513565b60008681548110151561038f57fe5b90600052602060002090600302019050600080549050816000018260010160009054906101000a900473ffffffffffffffffffffffffffffffffffffffff1683600201828054600181600116156101000203166002900480601f0160208091040260200160405190810160405280929190818152602001828054600181600116156101000203166002900480156104675780601f1061043c57610100808354040283529160200191610467565b820191906000526020600020905b81548152906001019060200180831161044a57829003601f168201915b50505050509250808054600181600116156101000203166002900480601f0160208091040260200160405190810160405280929190818152602001828054600181600116156101000203166002900480156105035780601f106104d857610100808354040283529160200191610503565b820191906000526020600020905b8154815290600101906020018083116104e657829003601f168201915b5050505050905094509450945094505b509193509193565b828054600181600116156101000203166002900490600052602060002090601f016020900481019282601f1061055c57805160ff191683800117855561058a565b8280016001018555821561058a579182015b8281111561058957825182559160200191906001019061056e565b5b509050610597919061059b565b5090565b6105bd91905b808211156105b95760008160009055506001016105a1565b5090565b905600a165627a7a723058205aec34b4f048508de93c5ec968593e9879b20e02ea091de8b028dd91140ef9400029",
  "source": "pragma solidity ^0.4.19;\n\ncontract SimpleStorage {\n\n    struct Message {\n        string word; // 留言\n        address from; // 留言者地址\n        string timestamp ; // 留言unix时间戳\n    }\n\n    Message[] private wordArr;\n\n    function setWord(string s, string t) public {\n        wordArr.push(Message({\n            word: s,\n            from: msg.sender,\n            timestamp: t\n        }));\n    }\n\n    function getRandomWord(uint random) public view returns (uint, string, address, string) {\n        if(wordArr.length==0){\n            return (0, \"\", msg.sender, \"\");\n        }else{\n            Message storage result = wordArr[random];\n            return (wordArr.length, result.word, result.from, result.timestamp);\n        }\n        \n    }\n\n}\n",
  "sourcePath": "C:\\Users\\Administrator\\Desktop\\fw\\contracts\\SimpleStorage.sol",
  "compiler": {
    "name": "solc",
    "version": "0.4.24+commit.e67f0147.Emscripten.clang"
  },
  "schemaVersion": "2.0.0",
  "updatedAt": "2018-06-04T06:36:25.387Z"
}